:02000000804E30
:0200030001BA40
:02000B0001BD35
:10005000758107119211A811AE740A7BDB7CF38BBA
:10006000908CA070F6740579017BED7CF38B908CFD
:10007000A070F6740A79007BF67CEE8B908CA03031
:10008000B20270F374057BF67CED8B908CA070F659
:1000900080C778647AFB7BFF7CFF740075B0FF8AB1
:1000A000B07590FF75A0FF2275A883D2882275894C
:1000B00001758AF0758CD8D28C22D2B232758AF052
:1000C000758CD8D80DB90106786414D2A33278643F
:0300D000143232B5
:00000001FF
