:100A8600C100040C0000000004080000000002126F
:0A0A9600000002100000021400012D
:100A6900D2AFD2A9D2ABD2A8758900438922758A9F
:0D0A790038758C38758B38758D38D2882211
:100800007590FF75A0FF120A69D28CD28EE515642F
:100810000145147048D3E513940AE512648094806E
:1008200050307590DB75A0F3C200E47F887E13FD25
:10083000FCAB0FAA0EA90DA80CC3120AA170D60515
:1008400013E51370020512E4F50FF50EF50DF50C26
:1008500080C3751400751502E4F512F513E51564EF
:10086000024514704AD3E5139405E5126480948020
:1008700050327590ED75A0F3C200E47F887E13FDC1
:10088000FCAB0FAA0EA90DA80CC3120AA170D605C5
:1008900013E51370020512D2A3E4F50FF50EF50D62
:1008A000F50C80C1751400751503E4F512F513E518
:1008B0001564034514600302094CD3E513940AE55B
:1008C0001264809480507A7590F675A0EE300048DE
:1008D000E4F50BF50AF509F5087F887E13FDFCABFE
:1008E0000BAA0AA909A808C3120AA170110511E5EB
:1008F0001170020510E4F50BF50AF509F508D3E5CA
:10090000119405E51064809480503675A0EDC20006
:100910007514007515018029E47F887E13FDFCABFA
:100920000FAA0EA90DA80CC3120AA1708D0513E51C
:100930001370020512E4F50FF50EF50DF50C020823
:10094000BA751400751504E4F512F513E515640481
:1009500045146003020809D3E5139405E512648089
:10096000948050307590F675A0EDC200E47F887ECB
:1009700013FDFCAB0FAA0EA90DA80CC3120AA1709F
:10098000D60513E51370020512E4F50FF50EF50D0B
:10099000F50C80C3E4F512F513F514751501020882
:0109A000094D
:03000300020AB23C
:060AB200200002D2003218
:03000B00020A2DB9
:100A2D00C0E0C0D0E50F2401F50FE4350EF50EE45E
:0E0A3D00350DF50DE4350CF50CD0D0D0E032BF
:03001B00020A4B8B
:100A4B00C0E0C0D0E50B2401F50BE4350AF50AE450
:0E0A5B003509F509E43508F508D0D0D0E032B1
:030000000209A151
:0C09A100787FE4F6D8FD7581200209E89B
:100AA100EB9FF5F0EA9E42F0E99D42F0E89C45F0AB
:010AB1002222
:1009AD00020800E493A3F8E493A34003F68001F258
:1009BD0008DFF48029E493A3F85407240CC8C3334B
:1009CD00C4540F4420C8834004F456800146F6DF1A
:1009DD00E4800B0102040810204080900A86E47E1A
:1009ED00019360BCA3FF543F30E509541FFEE4930F
:1009FD00A360010ECF54C025E060A840B8E493A3D6
:100A0D00FAE493A3F8E493A3C8C582C8CAC583CA00
:100A1D00F0A3C8C582C8CAC583CADFE9DEE780BEB8
:010AA0000055
:00000001FF
